:020000040800F2
:10000000782A0020990100083B1F0008631C0008A3
:10001000391F000885030008D528000800000000EB
:1000200000000000000000000000000001010008C6
:10003000BF030008000000004501000889270008F0
:10004000B3010008B3010008B3010008B3010008C0
:10005000B3010008B3010008B3010008B3010008B0
:10006000B3010008B3010008B301000889030008C8
:10007000B3010008B3010008B3010008B301000890
:10008000B3010008B3010008B3010008B301000880
:10009000B3010008B3010008B3010008B301000870
:1000A000B3010008B3010008B3010008B301000860
:1000B000B3010008B30100085D280008B30100087F
:1000C000B3010008B3010008B3010008B301000840
:1000D000B3010008B3010008B3010008B301000830
:1000E000B3010008B3010008B3010008DFF80CD029
:1000F00000F09EF800480047B92A0008782A00203E
:10010000224B19680868B0E8F00F80F30988BFF344
:100110006F8F4FF0000080F311884EF00D0E704786
:100120000000000006480068006880F3088862B696
:1001300061B6BFF34F8FBFF36F8F00DF00BF00BF0B
:1001400008ED00E0EFF30980BFF36F8F0F4B1A68E3
:1001500020E9F00F106008B54FF0500080F31188CF
:10016000BFF34F8FBFF36F8F03F0EEF84FF0000037
:1001700080F31188BDE8084019680868B0E8F00FFE
:1001800080F30988BFF36F8F704700BF2C000020F9
:10019000EFF3058070470000064880470648004797
:1001A000FEE7FEE7FEE7FEE7FEE7FEE7FEE7FEE727
:1001B000FEE7FEE715280008ED00000840EA01030D
:1001C0009B0703D009E008C9121F08C0042AFAD20D
:1001D00003E011F8013B00F8013B521EF9D27047D1
:1001E000D2B201E000F8012B491EFBD27047002279
:1001F000F6E710B513460A4604461946FFF7F0FF26
:10020000204610BD30B50B460146002020220124B7
:1002100009E021FA02F59D4205D303FA02F5491BD4
:1002200004FA02F52844151EA2F10102F1DC30BDEA
:10023000064C074D06E0E06840F0010394E8070033
:1002400098471034AC42F6D3FFF754FF64500008CF
:100250008450000870B5044600688168C943C90726
:100260001CD1816821F00101816000F0D5FF0546B5
:100270000FE000BF00F0D0FF401B022809D9A06AA0
:1002800040F01000A062E06A40F00100E06201204E
:1002900070BD20688068C043C007EBD0002070BDEF
:1002A00010B50146406A826A12F0500F05D0006A0C
:1002B000026BBDE8104008461047816A41F40071A6
:1002C000816201688968C1F3424107290CD1017B31
:1002D00051B9816A21F480718162816AC90403D4B1
:1002E000816A41F00101816200F006FC10BD10B589
:1002F000406A816A41F040018162C16A41F00401B3
:10030000C16200F010FC10BD10B5406A00F00AFC9C
:1003100010BD0000F8B5002604460096006881680C
:10032000C943C90728D0816841F0010181601348A1
:1003300013490068B0FBF1F000E0401E0090002877
:10034000FBD100F069FF054611E000BF00F064FF3B
:10035000401B02280BD9A06A40F01000A062E06A9E
:1003600040F00100E06284F824600120F8BD2068BC
:100370008068C043C007E9D10020F8BD28000020F4
:1003800040420F00FEE70000014800F029BD0000D8
:10039000E400002030B590F840500124AC40C56B1B
:1003A0006C60046863604368102B036803D0996035
:1003B0000068C26030BD9A600068C16030BD70479F
:1003C0002DE9F0470446167803F00700DFF8548162
:1003D000089D91460F46082805D2DFE800F0041674
:1003E000293C4F627588300602D598F81C2006E03B
:1003F00098F81C00012801D0012200E00022B9B2C7
:10040000A0B201F0B5FE6D1E76D0700602D598F848
:100410001C2006E098F81C00012801D0012200E011
:100420000022601CB9B280B201F0A2FE6D1E76D02F
:10043000B00602D598F81C2006E098F81C000128A8
:1004400001D0012200E00022A01CB9B280B201F06C
:100450008FFE6D1E63D0F00602D598F81C2006E0D2
:1004600098F81C00012801D0012200E00022E01CC5
:10047000B9B280B201F07CFE6D1E50D0300702D5BB
:1004800098F81C2006E098F81C00012801D00122F1
:1004900000E00022201DB9B280B201F069FE6D1E9D
:1004A0003DD0700702D598F81C2006E098F81C0093
:1004B000012801D0012200E00022601DB9B280B203
:1004C00001F056FE6D1E2AD0B00702D598F81C2008
:1004D00006E098F81C00012801D0012200E000226B
:1004E000A01DB9B280B201F043FE6D1E17D0F00717
:1004F00003D098F81C2007E011E098F81C000128B0
:1005000001D0012200E00022E01DB9B280B201F06A
:100510002FFE6D1E03D019F8016F083463E7BDE8A4
:10052000F087000068010020704700000A2805D00D
:100530000D2805D0034909690968084700F096B8F5
:1005400070470000680100207CB514460D468268A3
:100550008188CDE90012438802882146284601F0AF
:10056000E7FB7CBD7CB51E4C0546294620698069A9
:1005700000F038F8002831D041680088281A01EBD3
:10058000C0056968A878CDE9000120692A78B4F926
:100590001610037DB4F9140001F0CAFB2169487DEF
:1005A000097D884212D9227F012A01D0012200E070
:1005B00000220092A28A2B78E68A1A44304483B241
:1005C000701881B292B2A08A01F022FD2269B4F9BA
:1005D00014006978927D01FB0200A0827CBD0000BE
:1005E0006801002006E002888A4202D842888A42D6
:1005F00002D280680028F6D17047000070B5094D1E
:100600000446214628698069FFF7ECFF002807D0DF
:1006100041680088201A11F830002969897D484313
:1006200070BD00006801002001200880704710B5EF
:100630008069FFF7D7FF002800D0012010BD10B55A
:100640000021084600F0EAF8402380220021BDE89E
:1006500010400846AFF3008038B500249BB292B238
:1006600089B280B2009401F0D3FC38BD00B500F02F
:10067000B9F80249CA8A1044C88200BD6801002046
:100680002DE9FC47060054D000F0ACF8374C814609
:10069000B4F9148000F0ACF8E18A0746C81BE08288
:1006A0003DE000BF47F6FF71304600F032F9824668
:1006B0000146304600F014F90546A07E00F0030024
:1006C00001283CD0022836D00020A18A6A46081AA8
:1006D000A082ADF80000691E0844ADF80400E08A6D
:1006E000ADF80200A9F101010844ADF80600514639
:1006F000304600F0DBF8BDF80200E082514630469B
:1007000000F0CCF8064430780A281AD00D2818D00A
:10071000BDF800002844A082307818B1761C3078EB
:100720000028BFD1E08A3844E082608B20F00300CB
:100730006083BDE8FC8705EBD5704010C5E728460F
:10074000C3E7A07E00F0030001280BD0022809D0E7
:100750000020A08230780A28DED1E18A01EB09006E
:10076000E082D9E7A4F81480F4E7000068010020D3
:10077000024B9982DA82FFF783BF000068010020F4
:1007800070B50646094813460D46B0F91A0040F008
:10079000020000F07BF804461A4629463046FFF76F
:1007A000E7FF2046BDE8704000F070B86801002007
:1007B000FFF7CABE2DE9F0411D46164607460C4616
:1007C00005E032462146384601F0F6FA641CAC4298
:1007D000F7DBBDE8F0810000014909694968084775
:1007E0006801002001480069407D704768010020D1
:1007F00009490020897E01F00C020749042A096991
:1008000006D0082A01D00C2A01D1087D4008704783
:10081000087D401E704700006801002070B50D463D
:1008200002F05AF80446284602F05CF8204370BDF6
:100830000B4910B52E2008700A4800217F22018044
:10084000418082803F22C2808182C182064901614B
:1008500001214172017701F003FD002010BD00006D
:1008600014000020680100200450000802490A7F9B
:10087000824200D00877704768010020024A11695F
:1008800000B110610846704768010020024AB2F9C1
:100890001A1050830846704768010020002000E0CD
:1008A000401C491EFCD2704701F08EBC70B50B4B4A
:1008B000126804469A821214DA820D460BE000BFD9
:1008C00014F8010B7F2804D914F8011B6D1E41EAAE
:1008D0000020FFF72BFE6D1EF2D570BD68010020D1
:1008E00070B50D4604004FF000060CD10FE0641CFB
:1008F0006D1E7F2804D914F8011B6D1E41EA0020EB
:10090000FFF76AFF0644207808B1002DEFDA304681
:1009100070BD002208E0401C7F2B02D9401C521CF5
:1009200001E00A2B04D0521C03780BB18A42F2DB9F
:1009300010467047F8B500250446009590F824004D
:10094000012808D0012084F824002046FFF782FC0B
:10095000060002D04BE00220F8BDA06A20F48850C7
:1009600040F00200A062022000F014FD2249096854
:10097000B1FBF0F0400000E0401E00900028FBD1E9
:100980002046FFF7C7FC2068816841F008018160BC
:1009900000F042FC074604E000F03EFCC01B0A28C1
:1009A00011D8206880680007F6D42068816841F07B
:1009B0000401816000F030FC07460EE000F02CFCE2
:1009C000C01B0A2809D9A06A20F0020040F01000DC
:1009D000A06284F824500120F8BD20688068400798
:1009E000ECD4A06A20F0020040F00100A06284F87C
:1009F00024503046F8BD000028000020F8B500243F
:100A0000009490F824202546012A12D0012280F873
:100A100024204A681F23072A0DD20668776B521ECE
:100A200002EB820293409F430B6893401F4377631E
:100A300019E00220F8BD06680D2A0AD2376BD21FD2
:100A400002EB820293409F430B6893401F4337633E
:100A500009E0F76A0D3A02EB820293409F430B686C
:100A600093401F43F7620A68072306680A2A0AD3DD
:100A7000F7680A3A02EB420293409F438B68934027
:100A80001F43F76008E0376902EB420293409F433F
:100A90008B6893401F4337610A68102A01D0112ADE
:100AA00020D1124B02689A4217D193681B0219D4C5
:100AB000936843F4000393600968102912D10C492C
:100AC0000C4A0968B1FBF2F101EB8101490000E039
:100AD000491E00910029FBD104E0816A41F0200108
:100AE0008162012480F824502046F8BD0024014092
:100AF0002800002040420F000021084A084600BF9D
:100B000032F81030401C194489B21428F8DB142044
:100B1000B1FBF0F00249888070470000BC00002063
:100B200000000020704770472DE9F0414FF00007AA
:100B300004003D467ED0A06A002628B9E66284F80B
:100B40002460204600F07EF82046FFF783FBA16A70
:100B500001F01001014304D0A06A40F01000A0622F
:100B600068E0A16A21F4885141F00201A162626843
:100B7000E169237B0A4347EA43010A43A1684FF432
:100B80008077B94208D0012906D0002194F814C01A
:100B9000BCF1010F02D00AE03946F7E7F3B1A36ACE
:100BA00043F02003A362E36A43F00103E362236896
:100BB000D3F804C02CF4694C4CEA010CC3F804C00F
:100BC00023689968DFF870C001EA0C01114399604D
:100BD000A168B9420BD0012909D00CE0DFF85CC054
:100BE000A3690CEB43330B4343F40061DFE7218A35
:100BF0000D05A5F580152168CB6A23F470032B43FE
:100C0000CB62216889680E4B1940914208D1E66297
:100C1000A16A21F0020141F00101A162BDE8F08169
:100C2000A06A20F0020040F01000A062E06A40F0EC
:100C30000100E0620120F1E7FDF7E1FF00E0FFFFC6
:100C4000FE0E1FFF70B586B0002506460095019583
:100C50000295039500681A4988422ED1194988697E
:100C600040F400708861886900F40070049088691D
:100C700040F0040088618869694600F0040004902F
:100C800002200090032001900F4800F0CBF9104C97
:100C90000E48C4E900058020C4E9025040002061EC
:100CA000800060612020C4E90605204600F042F97A
:100CB00008B1FFF739FC3462666206B070BD00000F
:100CC00000240140001002400008014008000240DA
:100CD000E40000202DE9F047894604463B490068BE
:100CE0003B4F0E1D9046884201D0B84207D1306874
:100CF00010F4702F03D001252846BDE8F08794F842
:100D0000240001280CD0012084F824002046FFF79D
:100D100001FB05004FF0000004D084F82400EBE74D
:100D20000220EAE7A16A40F60162914341F4807132
:100D3000A1622168B94218D1326812F4702F14D020
:100D4000A16A41F48011A1623168490505D5A16A03
:100D500021F4005141F48051A162A16AC9040AD56D
:100D6000E16A21F00601E16206E0A26A22F4801243
:100D7000A2624968E9E7E06284F82400216A154824
:100D80008862216A1448C862216A1448086321688D
:100D90006FF0020008602068816841F48071816012
:100DA000216843464A464C31206A00F0F1F8206839
:100DB0008168C1F342410729816803D041F4801161
:100DC000816099E741F4A001FAE7000000240140A6
:100DD00000280140A102000809030008EF020008F2
:100DE0002DE9F05FC16B0C6801680B68D0F840C05A
:100DF000042202FA0CF2494DDFF824A1494E4A4F71
:100E0000DFF828B1DFF828E122422CD05A072AD592
:100E10000A68920603D40A6822F004020A60016894
:100E2000A94201D1042219E0514501D1402215E027
:100E3000B14202D14FF4806210E0B94202D14FF4C6
:100E400080420BE0594502D14FF4802206E0714503
:100E500002D14FF4800201E04FF080622F4908393F
:100E60004A60C16A3BE04FF0020808FA0CF818EA41
:100E7000040F4FF000094FF0010235D05FEA83788C
:100E800032D50B689B0605D40B6823F00A030B6070
:100E900080F821200168A94201D1022219E05145C0
:100EA00001D1202215E0B14202D14FF4007210E0CE
:100EB000B94202D14FF400520BE0594502D14FF430
:100EC000003206E0714502D14FF4001201E04FF00C
:100ED0000072124908394A6080F82090816A00291E
:100EE0001AD0BDE8F05F0847082505FA0CF5254241
:100EF00012D01B0710D50B6823F00E030B6090F87F
:100F00004010C36B02FA01F15960826380F821201E
:100F100080F82090016BE2E7BDE8F09F08000240F6
:100F20001C000240300002404400024058000240D1
:100F30006C00024030B528B308C813491422194484
:100F4000B1FBF2F18900C16310498163022141774D
:100F50001A6843F6F0718A43D0E900142143D0E9BE
:100F600002452C4321430469214344692143846998
:100F70002143114319600021416301224277017727
:100F8000084630BD012030BDF8FFFDBF0000024023
:100F900070B5044690F82000002501280CD00120EF
:100FA00084F8200094F821600020012E06D084F8F7
:100FB00020000225284670BD022070BD022684F85C
:100FC0002160A0632068066826F0010606602046BE
:100FD000FFF7E0F9E06A00282068016802D041F0DC
:100FE0000E0106E021F0040101602068016841F073
:100FF0000A0101602068016841F001010160D9E740
:1010000070B5044600F008F90546601C02D004489B
:101010000078044400F000F9401BA042FAD370BDF0
:101020001C0000202DE9F84FDFF8B891002409F1E9
:10103000040A0AF1040B23460F270BF1040EC9E042
:101040000125A5402A40AA427DD1674ED1F804C0AF
:10105000ACEB0608B44532D014DCBCF1030F3AD037
:1010600009DCBCF1000F2AD0BCF1010F1CD0BCF18F
:10107000020F31D11DE0BCF1110F17D0BCF1120FDE
:101080002AD119E0B8F5881F19D006DCB8F5803FE1
:1010900015D0B8F5801F1FD111E0B8F5001F0ED094
:1010A000B8F5041F18D10AE0CB6815E0CB681B1D0A
:1010B00012E0CB6808330FE0CB680C330CE08B6890
:1010C0002BB1012B4FF0080303D0456104E004234A
:1010D00002E0056100E00023FF2A01D8064601E096
:1010E00000F104064FEA840501D9A5F12005D6F8E0
:1010F000008007FA05FC28EA0C0803FA05F548EA1F
:101100000508C6F800804D68ED0062D5374DAE6920
:1011100046F00106AE61AD6924F0030605F0010555
:101120000095334D06EB050CDCF80850A607360F8A
:1011300007FA06F825EA0805DFF8B880404503D12C
:101140004FF0000817E044E0DFF8AC80404502D1E2
:101150004FF001080FE0DFF8A480404502D14FF0C6
:10116000020808E0DFF89880404502D14FF00308FC
:1011700001E04FF0040808FA06F848EA0508CCF840
:1011800008804D68D9F80060ED034D4601D516433F
:1011900000E096432E604D68DAF80060AD035546D6
:1011A00001D5164300E096432E604D68DBF80060E1
:1011B000ED025D4601D5164300E096432E604D6872
:1011C000DEF80060AD02754601D5164300E0964397
:1011D0002E60641C0D682A46E5407FF431AFBDE8FF
:1011E000F88F0000000401400000111000100240C0
:1011F0000000014000080140000C014000100140C7
:10120000001401408068084000D0012070470AB1F6
:10121000016170470904FBE70148806870470000DE
:101220001C000020024881680278114481607047E8
:101230001C000020074810B5016841F01001016052
:10124000032000F095F8002000F006F800F03EF8CA
:10125000002010BD0020024000B5014687B00022EA
:101260001E2000F065F81E2000F054F81348C169F4
:1012700041F00401C161C06905A900F004000690B5
:10128000684600F0F7F900F015FA0D494000B0FB90
:10129000F1F10D480B4A491E0260416040F2E7320D
:1012A0000021C0E90321816000F0ECFB10B10120B6
:1012B00007B000BD044800F001FCF9E7001002404F
:1012C00040420F0000080040280100200F4808B5E8
:1012D000816941F001018161816901F001010091A1
:1012E000C16941F08051C161C069002200F08050A5
:1012F00000900F21901E00F01BF80548416821F076
:10130000E06141F00071416008BD00000010024042
:1013100000000140002809DB00F01F02012191407C
:101320004009800000F1E020C0F800117047000083
:10133000F0B40E4B1B680C46C3F30223C3F1070540
:10134000042D00D90425191D072901D2002300E02E
:10135000DB1E012606FA05F1491E214099409E40F8
:10136000761E16403143F0BC01F0D6BA0CED00E019
:10137000064900F0070208684FF6FF03184040EAEC
:101380000220034A10430860704700000CED00E0A3
:101390000000FA0510B529A401461DCC86B08DE8E1
:1013A0001D002AA02A4C006804900020012923D0A7
:1013B00002293AD010291DD161682268D20119D5BD
:1013C000C1F38342C9031DF8020009D5616804AA6C
:1013D000C1F34041515C1F4AB2FBF1F1484301E0C7
:1013E0001D4948436168490204D440005FF003018D
:1013F000B0FBF1F006B010BD226AC2F30121012951
:1014000003D1920701D5C803F4E7022905D1626A26
:10141000920702D549F64040ECE70329EAD121685A
:101420008903E7D54FF22440E4E700F053F96168FF
:10143000C1F38131491C4900DAE7000002030405C9
:10144000060708090A0B0C0D0E0F10100102000010
:101450000010024000127A0000093D002DE9F84317
:1014600005460078354CC00754D0E0690026C0001E
:1014700008D4E06940F08050E061E069012600F0A6
:10148000805000902E480168C90512D4016880463A
:1014900041F480710160FFF7BFFE074605E000BF21
:1014A000FFF7BAFEC01B642823D8D8F80000C00597
:1014B000F6D5206A10F4407021D0A98801F440715B
:1014C00081421CD0206A1F49012220F440700A602A
:1014D00000220A602062C00711D0FFF79DFE074678
:1014E00041F2883808E000BFFFF796FEC11B414576
:1014F00002D90320BDE8F883206A8007F4D5206A6A
:10150000696820F44070084320621EB1E06920F051
:101510008050E0612878800705D56068A96820F4CC
:101520004040084360602878C00605D56068E968D7
:1015300020F48000084360600020DBE700100240D8
:1015400000700040400442422DE9F0470F4605007C
:1015500061D0434E306800F00700B84209D23068CD
:1015600020F0070038433060306800F00700B842D0
:1015700051D128683B4C810712D5400703D56068DC
:1015800040F4E06060602878000703D5606840F4AC
:10159000605060606068A96820F0F00008436060F7
:1015A0002878C00728D06868012810D02168022850
:1015B00010D0890700292EDA616821F00301014368
:1015C0006160FFF729FE804641F288390DE021680D
:1015D0008903EFE78901EDE7FFF71EFEA0EB0801A5
:1015E000494502D90320BDE8F0876068696800F0CA
:1015F0000C00B0EB810FEFD1306800F00700B8426B
:101600000BD9306820F0070038433060306800F0B4
:101610000700B84201D00120E5E72878400705D54A
:101620006068E96820F4E06008436060287800079B
:1016300006D56068296920F4605040EAC100606006
:1016400000F058F86168084AC1F30311515CC840C2
:101650000649086006480068FFF7FEFD0020C2E763
:101660000020024000100240245000082800002002
:10167000200000200F2202600C4A536803F003038D
:101680004360536803F0F0038360536803F4E0633E
:10169000C36052684FF4E06303EAD2020261044877
:1016A000006800F00700086070470000001002406A
:1016B000002002400448054900684968044AC1F313
:1016C0000221515CC84070472800002000100240F1
:1016D000345000080448054900684968044AC1F3C9
:1016E000C221515CC8407047280000200010024011
:1016F0003450000812A185B00FC98DE80F0014A066
:10170000144A006804905168134801F00C03042B3C
:1017100010D0082B0ED1C1F38343C9031DF8030079
:101720000AD5516804AAC1F34041515C0A4A5043AA
:10173000B0FBF1F005B0704708494843FAE70000F4
:1017400002030405060708090A0B0C0D0E0F101002
:10175000010200000010024000127A0000093D0062
:101760002DE9F84F040070D02078C04DC00749D053
:101770006868C0F38100012807D06868C0F3810061
:10178000022809D16868C00306D52868800339D5C6
:1017900060680028E7D035E06068B0F5803F0BD086
:1017A00010B1B0F5A02F11D0286820F48030286047
:1017B000286820F4802002E0286840F48030286007
:1017C000606890B1FFF728FD06460AE0286840F4FB
:1017D00080202860F0E700BFFFF71EFD801B642813
:1017E00073D828688003F7D50CE0FFF715FD06468F
:1017F00005E000BFFFF710FD801B6428F0D82868C3
:101800008003F7D420789A4E80074FF001094FF0FB
:10181000000839D5686810F00C0F07D06868C0F36D
:101820008100022809D16868C00306D428688007AF
:1018300014D52069012808D110E02069B0B1C6F89C
:101840000090FFF7E9FC074605E00AE1FFF7E4FC3A
:10185000C01B0228C4D828688007F7D528686169AA
:1018600020F0F80040EAC10028600DE0C6F80080D2
:10187000FFF7D2FC074604E0FFF7CEFCC01B0228AE
:1018800023D828688007F7D4207800072CD579481A
:10189000A169D9B1C0F80090FFF7BEFC074604E08B
:1018A000FFF7BAFCC01B02280FD8686A8007F7D57B
:1018B00071484FF4FA510068B0FBF1F0009000BF9E
:1018C0000098411E0091FAD20EE080E0C0F800803E
:1018D000FFF7A2FC074604E0FFF79EFCC01B0228AE
:1018E00075D8686A8007F7D42078400760D5E86922
:1018F0000027C00008D4E86940F08050E861E8693A
:10190000012700F0805000905C480168C90513D49D
:101910000168834641F480710160FFF77DFC8246D7
:1019200006E000BFFFF778FCA0EB0A0064284ED861
:10193000DBF80000C005F5D5E06801280AD008B141
:10194000052813D0286A20F001002862286A20F0B8
:10195000040002E0286A40F001002862E06841F2D9
:10196000883B98B1FFF758FC82460BE0286A40F0AC
:1019700004002862EEE700BFFFF74EFCA0EB0A016F
:1019800059455AD8286A8007F6D50CE0FFF744FC81
:10199000824605E0FFF740FCA0EB0A0159454CD810
:1019A000286A8007F6D41FB1E86920F08050E8610A
:1019B000E06988B36968C1F38101022944D0022833
:1019C000C6F8608004D0FFF727FC044638E034E016
:1019D000FFF722FC074604E0FFF71EFCC01B0228AD
:1019E0002BD828688001F7D4206AB0F5803F05D154
:1019F0006868A16820F4003008436860D4E90801F1
:101A00000843696821F4741108436860C6F860905F
:101A1000FFF702FC044606E025E000BFFFF7FCFBF1
:101A2000001B022809D828688001F7D51BE000BFF9
:101A3000FFF7F2FB001B022802D90320BDE8F88F54
:101A400028688001F4D40EE00128F7D06868226A83
:101A500000F48031914204D1616A00F47010884230
:101A600001D00120EAE70020E8E700000010024072
:101A700000004242800442422800002000700040E2
:101A80007047704710B5040003D094F83D0010B1C2
:101A900007E0012010BD002084F83C00204600F043
:101AA0000CF8022084F83D00211D206800F0DCFEC7
:101AB000012084F83D00002010BD70470168CA680D
:101AC00042F00102CA600068816801F0070106293E
:101AD00003D0016841F001010160002070477047A8
:101AE00070B50446006801694FF00005C9438907D5
:101AF00015D4C168C943890711D4E91E01610120C9
:101B00002077206880698007204602D0FFF7E7FF32
:101B100004E000F098F8204600F096F82577206859
:101B20000169C943490717D4C168C943490713D498
:101B30006FF004010161022020772068806910F4B1
:101B4000407F204602D0FFF7CAFF04E000F07BF898
:101B5000204600F079F8257720680169C943090714
:101B600016D4C168C943090712D46FF00801016196
:101B7000042020772068C0698007204602D0FFF744
:101B8000AEFF04E000F05FF8204600F05DF8257736
:101B900020680169C943C90617D4C168C943C90689
:101BA00013D46FF010010161082020772068C0690C
:101BB00010F4407F204602D0FFF791FF04E000F0D0
:101BC00042F8204600F040F8257720680169C943B3
:101BD000C90708D1C168C943C90704D1891E016179
:101BE000204600F033F820680169C943090609D48A
:101BF000C168C943090605D46FF080010161204620
:101C0000FFF73EFF20680169C943490609D4C1684E
:101C1000C943490605D46FF040010161204600F038
:101C20001FF820680169C94389060BD4C168C943FC
:101C3000890607D46FF0200101612046BDE870409D
:101C4000FFF71FBF70BD7047704700000068034971
:101C5000884201D1FFF7E6BA704700000008004053
:101C60007047FEE72DE9F04101262F4D37022F4C3A
:101C70004FF4004801281CD0A87898B110212046C4
:101C8000FFF7C0FAB8B120212046FFF7BBFA90B1A8
:101C900039462046FFF7B6FA68B141462046FFF7BD
:101CA000B1FA40B110212046FFF7ACFA012825D047
:101CB00037E0AE70E2E70A20FFF7A2F90020A87033
:101CC00010212046FFF79EFA78B120212046FFF729
:101CD00099FA68B139462046FFF794FA50B1414667
:101CE0002046FFF78FFA38B11BE00120BDE8F081F4
:101CF0000220FBE70420F9E70820F7E7202120462F
:101D0000FFF780FA01280CD139462046FFF77AFA0E
:101D1000012806D141462046FFF774FA012800D178
:101D2000AE700020E2E70000000000200008014043
:101D30002DE9FE43DFF87C90DDE90A65B9F9028000
:101D4000871801EB030C7F1EA8EB0104ACF1010C1A
:101D5000002C05DD1B1B002B2ADD04FB065541462C
:101D6000B9F906804C46ACEB080CBCF1000F03DD62
:101D7000A3EB0C03002B1BDDB4F904C0A7EB0C078D
:101D8000002F00DDD21BB9F900400027844208DD96
:101D9000241A24F007073844121B05EBE40504F06D
:101DA0000707002A04DDCDE90065029700F026F858
:101DB000BDE8FE836801002038B50F4BB3F902403F
:101DC0008C4217DCB3F906408C4213DBB3F90040B8
:101DD000844200DD2046B3F90440944200DA2246F2
:101DE000824207DB1B7F00938BB292B289B280B232
:101DF00000F039F938BD0000680100202DE9F84FE6
:101E00001E46DDE90A951746884683460024DDF81C
:101E100030A009E004EB080153462A4658460097D3
:101E2000FEF7CEFA4D44641CB442F3DBBDE8F88FF4
:101E30003EB500210D48009101910B4A02910260CC
:101E400001248160047301754FF460220461C26152
:101E50004160FEF769FE05200094CDE90140694626
:101E60000248FEF7CBFD3EBD002401408C0000205F
:101E70002DE9F04385B000242C480094019402948D
:101E80000394816941F020018161816901F02001A1
:101E90000491816941F004018161816901F00401CB
:101EA0000491816941F0080181618069DFF88080D7
:101EB00000F0080004900122C0214046FFF7A7F976
:101EC000DFF87090012203214846FFF7A0F94FF494
:101ED0004067002239464846FFF799F948F230102A
:101EE00001258DE8310069464046FFF79BF8C02088
:101EF0000226CDE90005CDE9024669464046FFF7D6
:101F000091F80320CDE90005CDE90246694648462F
:101F1000FFF788F801AA1120009782E8510069466E
:101F20004846FFF77FF805B0BDE8F0830010024097
:101F300000080140000C0140FEE770472DE9F04128
:101F4000154F054600244FF400684FF480660022C8
:101F500031463846FFF75BF9280601D5012200E03B
:101F6000002241463846FFF752F96806050E012265
:101F700031463846FFF74BF9641CE4B2082CE6D32F
:101F8000002231463846FFF742F931463846BDE86F
:101F9000F0410122FFF73BB9000C014070B501226E
:101FA0000B4D940221462846FFF731F90122D60253
:101FB00031462846FFF72BF9002231462846FFF725
:101FC00026F921462846BDE870400022FFF71FB9D8
:101FD000000C014070B50D4D4FF480640022214685
:101FE0002846FFF714F96600002231462846FFF71D
:101FF0000EF9012231462846FFF709F92146284605
:10200000BDE870400122FFF702B90000000C01405A
:102010002DE9F8431F46DDF820900D46064680283E
:102020001FD2402D1DD2B018802802D3C6F18000E7
:1020300082B2E819402802D3C5F1400087B20024DB
:1020400006EB02080BE0281983B281B21FFA88F26E
:102050003046CDF8009000F006F8641CE4B2BC42B3
:10206000F1D9BDE8F8832DE9FC4F1D4614460E4614
:102070000746802800D37F27802C00D37F24402E62
:1020800000D33F26402D00D33F25A74201D2E01BBD
:1020900000E0381B0FFA80F9AE4201D2A81B00E025
:1020A000701B0FFA80FA4FF0FF30A74201D20121D6
:1020B00000E001460191AE4200D20120834648462D
:1020C000D14501DCCAF1000000EBD07040F34F08AD
:1020D000B9F1000F23D0BAF1000F35D0C9F10000DB
:1020E0000090314638460B9A00F042F8A74201D1E1
:1020F000AE4227D000994046884506DDA8EB0A018C
:102100000FFA81F8019939448FB25045E9DA08EBAA
:1021100009000FFA80F806EB0B0086B2E1E7B54242
:1021200002D22846354686B2BC4200D2A7B234B2AB
:1021300006E0A1B238460B9A00F01AF8641C24B2EB
:10214000AC42F6DDBDE8FC8FB54200D2AEB2BC4277
:1021500002D220463C4687B23DB206E0A8B23146E4
:102160000B9A00F005F86D1C2DB2A542F6DDE9E7EB
:1021700070B5802813D2402911D20B4B012401F0F5
:1021800007051E79AC40094BC90800EBC1100EB120
:1021900032B101E0012A03D0195CA143195470BD8A
:1021A000195C2143FAE70000160000208801002096
:1021B00028B1FF224FF480610248FEF711B80022D7
:1021C000F8E700008801002070B50E4D002400BF24
:1021D00004F1B000C0B2002100F016F8002108465A
:1021E00000F012F80021102000F00EF805EBC410EA
:1021F0004022802100F01AF8641CE4B2082CE7D3D6
:1022000070BD00008801002070B50D460446FFF740
:10221000C5FE7820FFF792FE2846FFF78FFE204686
:10222000FFF78CFEBDE87040FFF7D4BE70B51446D2
:102230000D460646FFF7B2FE7820FFF77FFE2046E8
:10224000FFF77CFE002404E0305DFFF777FE641C9E
:10225000A4B2AC42F8D3BDE87040FFF7BBBE0000AB
:1022600010B50021AE20FFF7CFFF00212020FFF79F
:10227000CBFF00211020FFF7C7FF0021B020FFF7A0
:10228000C3FF0021C820FFF7BFFF00210846FFF76A
:10229000BBFF00211020FFF7B7FF00214020FFF710
:1022A000B3FF00218120FFF7AFFF0021FF20FFF7E0
:1022B000ABFF0021A120FFF7A7FF0021A620FFF719
:1022C000A3FF0021A820FFF79FFF00213F20FFF779
:1022D0009BFF0021A420FFF797FF0021D320FFF7E9
:1022E00093FF00210846FFF78FFF0021D520FFF75D
:1022F0008BFF0021F020FFF787FF0021D920FFF797
:1023000083FF00212220FFF77FFF0021DA20FFF763
:102310007BFF00211220FFF777FF0021DB20FFF772
:1023200073FF00212020FFF76FFF00218D20FFF7B2
:102330006BFF00211420FFF767FF0021AF20FFF79C
:1023400063FF0020FFF734FFFFF73EFF0348002143
:10235000018041800121417110BD00001600002064
:1023600010B5FEF76CF90022402103A0FEF708FA31
:10237000BDE81040FEF798BAD7CBCCACBDE2CBE3BA
:102380000000000070B5FEF75AF90022402135A088
:10239000FEF7F6F9354C4FF47A756E106078032825
:1023A0002DD3FEF739FFB0FBF5F105FB1100B0426C
:1023B00017D96078022804D1102200212CA0FEF742
:1023C000D7F96078032804D12022002128A0FEF745
:1023D000CFF96078042804D13022002124A0FEF730
:1023E000C7F91022114623A0FEF7C2F920221021BE
:1023F00023A0FEF7BDF93022102123A02CE0FEF728
:102400000BFFB0FBF5F105FB1100B04217D9607866
:10241000012804D11022002115A0FEF7A9F9607847
:10242000022804D12022002111A0FEF7A1F9607832
:10243000032804D1302200210DA0FEF799F91022C3
:10244000114614A0FEF794F92022102109A0FEF7EE
:102450008FF9302210210AA0FEF78AF9BDE87040FA
:10246000FEF722BAD6F7B2CBB5A5000000000020D7
:102470002A000000D7CBCCACBDE2CBE300000000CB
:10248000BAF4CEFCB5C6000057494649CDA8D0C520
:1024900000000000CFB5CDB3B2E2CAD40000000006
:1024A00010B5FEF7CCF80022402103A0FEF768F932
:1024B000BDE81040FEF7F8B9BAF4CEFCB5C600008E
:1024C00030B589B0FEF7BBF80022402162A0FEF7CC
:1024D00057F96448FEF7D2F9634C64A16846A288B4
:1024E00000F006FA10220A216846FEF741F9A0889A
:1024F0004FF47A75B0FBF5F105FB11004621484316
:10250000B0FBF5F21123102132203232FEF752F9DE
:10251000A088B0F57A6F05D31323782212213220D8
:10252000FEF748F9A08840F6B831884205D3152354
:10253000782214213220FEF73DF9A088B0F5FA6F19
:1025400005D31723782216213220FEF733F9A0880D
:10255000A84205D31923782218213220FEF72AF940
:10256000444C10212046FEF74DFE4FF01E024FF066
:102570000A0180B340A0FEF7FBF820212046FEF7B9
:1025800041FE4FF01E021146A8B33CA0FEF7F0F842
:102590004FF480712046FEF735FE4FF01E024FF0DB
:1025A000320148B336A0FEF7E3F800BF4FF4004114
:1025B0002046FEF727FE4FF01E024FF04601D0B333
:1025C00030A0FEF7D5F800BFFEF76EF92E48FEF7F3
:1025D00055F909B030BDFFE72CA0FEF7C9F800207F
:1025E000FEF744F91E220A2123A0FEF7C1F80120BC
:1025F000FEF73CF9C1E700E00EE024A0FEF7B8F8D2
:102600000020FEF733F91E2211461CA0FEF7B0F899
:102610000120FEF72BF9BBE71CA0FEF7A9F800206C
:10262000FEF724F91E22322115A0FEF7A1F80120A1
:10263000FEF71CF9BAE7FFE714A0FEF799F80020AF
:10264000FEF714F91E2246210EA0FEF791F8012094
:10265000FEF70CF9B8E70000CFB5CDB3B2E2CAD4AB
:1026600000000000045000080000002041443A250A
:1026700064000000000801404B3100004B320000B4
:102680004B3300004B34000090470008A1F6A1F640
:102690000000000010B5FDF7D2FF0022402103A08A
:1026A000FEF76EF8BDE81040FEF7FEB85749464900
:1026B000CDA8D0C5000000000124FEF7ADFD054601
:1026C000204600F0FFFCFEF7A7FD05F59671884255
:1026D00007D3FEF7A1FD05466006040E082C00D9BD
:1026E0000124012000F0BAFAEAE700000D4C20783E
:1026F000012808D0022809D003280AD004280BD0CA
:10270000FFF740FE0AE0FFF7DBFE07E0FFF728FED9
:1027100004E0FFF7C5FE01E0FFF7BCFF012000F079
:102720009DFAE4E700000020164C0020FFF79AFA1B
:10273000E070082801D100212170217801290ED0F4
:1027400002290CD003290AD0042908D001280AD074
:1027500002280DD0042811D00A20FEF751FC0120D8
:1027600000F07CFAE1E760780128F8D9401E03E028
:1027700060780428F3D2401C6070F0E76078207025
:10278000EDE700000000002010B5502080F3118814
:10279000BFF34F8FBFF36F8F00F084FE18B1044971
:1027A0004FF080500860002080F3118810BD0000B9
:1027B00004ED00E030B593B028216846FDF717FD21
:1027C00014210AA8FDF713FD002401200F94109492
:1027D0001194010412948DE8130004904FF4E0105A
:1027E000CDE90810022507956846FEF7B9FF0F20CE
:1027F000CDE90A056802CDE90C4002210AA80E9431
:10280000FEF7A2FEA80311900F950FA8FEF726FE73
:1028100013B030BD0D48016841F00101016041680D
:102820000B4A1140416001680A4A11400160016889
:1028300021F480210160416821F4FE0141604FF4E0
:102840001F0181600449C003086070470010024006
:102850000000FFF8FFFFF6FE08ED00E00148FFF77B
:102860003FB9000028010020F0B50268164B174C54
:10287000174D4FF08047984205D0B84203D0A04290
:1028800001D0A84203D122F070064A683243984230
:1028900005D0B84203D0A04201D0A84203D122F40F
:1028A0004074CA6822434C6922F0800222430260CD
:1028B0008A68C2620A688262984201D1096901632A
:1028C00001214161F0BD0000002C014000040040E6
:1028D00000080040FEE700000149888200207047A0
:1028E000680100200149C88200207047680100206B
:1028F0000FB4084B10B504A902AA039800F02CF8F5
:10290000044602A9002000F0D1F8204610BC5DF872
:1029100014FB0000AD2A00080907090E002804DB9B
:1029200000F1E02080F80014704700F00F0000F183
:10293000E02080F8141D704702E008C8121F08C18B
:10294000002AFAD170477047002001E001C1121F30
:10295000002AFBD1704700002DE9FF4F89B09B464C
:102960000446002506E025280BD05A460B999047CF
:10297000641C6D1C20780028F5D10DB02846BDE8F8
:10298000F08F0027B8460122474900E0074314F8BA
:10299000013F203B02FA03F00842F7D120782E28AD
:1029A00019D114F8010F47F004072A280ED06FF050
:1029B0002F022078A0F1300109290CD808EB8801FA
:1029C00002EB410100EB0108641CF2E70A98641C69
:1029D00050F8048B0A9020780028CED0642808D0C4
:1029E000692806D075281ED05A460B9990476D1C51
:1029F00058E00A994FF00A0901C90A91002802DA41
:102A000040422D2102E0390504D52B218DF82010FC
:102A1000012103E0F90704D02021F7E78A4608AE38
:102A20000DE00021FAE70A994FF00A0901C90A915D
:102A3000F7E74946FDF7E6FB303106F8011D0028AF
:102A4000F7D1ADEB060000F12009780701D44FF073
:102A50000108C84502DDA8EB090000E0002080461F
:102A6000002706E008A85A46C05D0B9990476D1CE8
:102A70007F1C5745F6DB04E030205A460B999047FF
:102A80006D1CB8F10001A8F10108F5DC05E016F8AD
:102A9000010B5A460B9990476D1CB9F10001A9F141
:102AA0000109F4DC641C65E7092801000A68531C6D
:102AB0000B6010707047000090B0FEF7BBFBFFF793
:102AC00079FEFFF7D5F95348416941F001014161B1
:102AD0004069002200F001000F9005210B20FEF755
:102AE00027FC0B20FEF716FCFFF7A2F9002000F0F0
:102AF000E9FAFA20FEF784FA0F2000F0E3FAFA2050
:102B0000FEF77EFA002000F0DDFAFA20FEF778FAF0
:102B10000F2000F0D7FAFA20FEF772FA002000F03A
:102B2000D1FAFDF785FE3C48FDF7A8FE00221146CC
:102B30003AA0FDF71DFE142200213CA0FDF718FE6F
:102B4000FDF7B2FE4FF47A70FEF75AFAFDF777FD03
:102B50003A4908884988C0F18000C1F1400101EB81
:102B6000D1714A1000EBD07041103448FDF720FEBF
:102B7000FDF79AFE4FF48075314CEE01102120468E
:102B8000FEF740FB012811D120212046FEF73AFB39
:102B900001280BD129462046FEF734FB012805D138
:102BA00031462046FEF72EFB0128E7D0FA20FEF73B
:102BB00027FAFDF744FDFDF777FE2248FDF7BAFE40
:102BC0002049142230311F48FEF784F814221E4990
:102BD0006846FDF7F3FA0021684600F04BF81B4CFD
:102BE00019491422A060143105A8FDF7E7FA002165
:102BF00005A800F03FF81449E060142228310AA823
:102C0000FDF7DCFA00210AA800F034F8206100F09A
:102C10002CF8FEE70010024090470008D7A8D2B574
:102C2000C9E8BCC6CAB5BCF949490000D1EED3EE2B
:102C3000B3BF31373034313132390000BC4900087C
:102C4000000801408C000020CC4900080000002052
:102C500001460020842900D0C81C704710B500B977
:102C6000012000F00FFB002010BD10B500F030FB7C
:102C7000002010BD3EB504460D46B0F90800FFF730
:102C8000E7FF02A9CDE90001208A2B4682B2D4E9F0
:102C9000001000F0DBFB012801D000203EBD0298AF
:102CA0003EBD00002DE9F041184C0F46054666690F
:102CB0002068001D00F02CFA38B9206890F82C101C
:102CC00001208840A1698143A161681C07D137B107
:102CD0002168BDE8F0410E48091D00F052BA206895
:102CE0003544B5424560216805D2A068BDE8F04191
:102CF000091D00F02EBA6068091D00F02AFA206B49
:102D0000854200D22563BDE8F08100002C00002040
:102D1000640600202DE9F041054600F03FFA2E4CF4
:102D20002069401C206120682C4F10B1E06940B33D
:102D30002DE025602069012829D1002606EB8600B8
:102D400007EB800000F0F7F9761C072EF6D3234836
:102D50008C3000F0F0F92148A03000F0ECF91F4869
:102D6000B43000F0E8F91D48C83000F0E4F91B4821
:102D7000DC3000F0E0F919488C3060601430A0605D
:102D800005E02068E96AC06A884200D82560E06AE8
:102D9000401CE062E96A0120A26988401043A061FA
:102DA00001EB810007EB8000291D00F0EAF900F03B
:102DB00015FAE06900280CD02068E96AC06A8842E8
:102DC00007D207494FF080500860BFF34F8FBFF321
:102DD0006F8FBDE8F08100002C00002088050020E6
:102DE00004ED00E010B50446006B00F00BFA20463D
:102DF000BDE8104000F006BA10484FF400514207F9
:102E000006D0C01D0D4920F00700411AC1F5005140
:102E10000B4A00230144C2E900030839103A21F0AB
:102E2000070111604B600B600B1AC0E9001393603F
:102E30004FF000405360D0607047000078060020DB
:102E400078000020144E154CA6F1C8074FF08058AA
:102E5000DFF84C9012E000BF00F0A0F9F068C56800
:102E6000281D00F055F92069401E2061E068401ED1
:102E7000E06000F0B3F92846FFF7B4FFE0680028EF
:102E8000EAD138680128F9D9C9F80080BFF34F8F1B
:102E9000BFF36F8FF2E70000500600202C000020E7
:102EA00004ED00E02DE9F0479A46DDE9098481460A
:102EB0006FF00303206B03EB82021044089D20F0A7
:102EC0000706700707D0502080F31188BFF34F8F9B
:102ED000BFF36F8FFEE723180A5C83F834200A5C87
:102EE00012B1401C1028F6D3002784F84370072D38
:102EF00000D30625E562C4E91157201D00F026F92C
:102F000004F1180000F022F92461C5F107006462A1
:102F1000A061E76484F8507052464946304600F09C
:102F2000BFF82060B8F1000F01D0C8F80040BDE83C
:102F3000F087000030B5114900E011460A6882426E
:102F4000FBD34B685C18844203D140681844486046
:102F5000084643681C18944209D1084C103C246868
:102F6000A24209D052681A4442600A68126802609C
:102F7000814200D0086030BD0460F9E7780000208D
:102F800006484168096829B14168C968C968496843
:102F9000016370474FF0FF31FAE700002C0000207A
:102FA00008484068401C4FF0500080F3118804D05E
:102FB000BFF34F8FBFF36F8FFEE7BFF34F8FBFF3AA
:102FC0006F8FFEE7800000202DE9F04105460027C5
:102FD00000F0B2F9314E306808B9FFF70DFFF06824
:102FE00005424BD1C5B3083568070ED005F0070080
:102FF000C0F108000544680707D0502080F311880D
:10300000BFF34F8FBFF36F8FFEE72DB3706885421C
:1030100034D82248103001460C6801E020460C46A6
:103020006168A94202D221680029F7D131688C4237
:1030300024D007682168016060680837411B1029A7
:103040000FD96019420708D0502080F31188BFF3D0
:103050004F8FBFF36F8FFEE710E041606560FFF7B1
:1030600069FF61687068401A7060B268904200D26F
:10307000B060F06801430020C4E9000100F076FA76
:10308000780707D0502080F31188BFF34F8FBFF32C
:103090006F8FFEE73846BDE8F08100006800002031
:1030A00010B5031F4FF080741C601B1F21F001013D
:1030B0001960191F024B0B60143940380A6010BDAB
:1030C000A12F000870B540F300020F4D04464021C7
:1030D0002846521CFEF79BF844F340028021284604
:1030E000521CFEF794F8094D44F380020121284652
:1030F000521CFEF78CF844F3C0022846BDE870402D
:103100000221521CFEF783B800080140000C014068
:10311000D0E9013201699A60D0E901235A604A6816
:10312000824201D182684A60002202610868401E22
:1031300008600868704700F108014FF0FF32C0E9ED
:103140000112C1600161002101607047002101612D
:10315000704730B50B685A1C02D000F1080202E03B
:10316000026904E02246546825689D42FAD95368F2
:103170004B6099608A60516008610168491C016078
:1031800030BD42684A6093688B6093685960916073
:1031900008610168491C016070470000502080F3FD
:1031A0001188BFF34F8FBFF36F8F0A494868401CE7
:1031B000486001280CD10848006810F0FF0F07D0C4
:1031C000502080F31188BFF34F8FBFF36F8FFEE75E
:1031D000704700008000002004ED00E008494868C6
:1031E00028B1401E486001D180F3118870475020FB
:1031F00080F31188BFF34F8FBFF36F8FFEE700009E
:103200008000002070B5002827D0144DA0F10804DC
:103210006168E868014207D1502080F31188BFF34C
:103220004F8FBFF36F8FFEE722683AB1502080F3D3
:103230001188BFF34F8FBFF36F8FFEE7814361604B
:1032400000F07AF860686968084468602046FFF713
:1032500071FEBDE8704000F089B970BD68000020C3
:103260004FF0E02000210161816105494FF47A723D
:103270000968B1FBF2F1491E416107210161704704
:103280002800002010B5020014D00F48806B38B120
:10329000502080F31188BFF34F8FBFF36F8FFEE78D
:1032A00000F04AF800211046FFF7FCFC00F05EF940
:1032B000002807D105494FF080500860BFF34F8FB9
:1032C000BFF36F8F10BD00002C00002004ED00E064
:1032D0001CB515480024CDE900402346802213A1E7
:1032E000144800F0B3F8012809D0401C1AD150202E
:1032F00080F31188BFF34F8FBFF36F8FFEE750202D
:1033000080F31188BFF34F8FBFF36F8F06484FF0E4
:10331000FF31343801630121C1614461BDE81C40C3
:1033200000F040B81CBD00006000002049444C453E
:1033300000000000452E00080248816B491C816393
:10334000704700002C0000201448816B11B101214E
:1033500041627047002141628169B1FA81F1C1F196
:103360001F0101EB81020E4951F822306BB101EBD4
:10337000820101F108034A6852684A609A4201D109
:1033800052684A60D16801607047502080F311880C
:10339000BFF34F8FBFF36F8FFEE700002C000020BC
:1033A000880500201CB5264908780190FF20087088
:1033B00008788DF800009DF800009DF8002000F0CE
:1033C000F000904207D0502080F31188BFF34F8F58
:1033D000BFF36F8FFEE79DF800001A4B00F050001E
:1033E00018700720986005E09DF8002052008DF8C5
:1033F0000020401E9DF800201206F5D49860032896
:1034000007D0502080F31188BFF34F8FBFF36F8F29
:10341000FEE74FF440709860019808700A48016810
:1034200041F470010160016841F070410160FFF7F3
:1034300017FF00205860FCF775FE00201CBD00003F
:1034400000E400E08000002020ED00E02DE9FF5FB7
:103450008346DDE90E87994616468A469000FFF7B7
:10346000B3FD05001AD05420FFF7AEFD040012D0C2
:1034700025630021CDE90241CDE900874B46324664
:1034800051465846FFF70EFD2046FFF743FC01204A
:1034900004B0BDE8F09F2846FFF7B4FE4FF0FF30C0
:1034A000F6E700002DE9F0412E4C0027A06B40B15B
:1034B000206A401C2062606A00B101273846BDE8DE
:1034C000F0816669761C666113D16068006838B166
:1034D000502080F31188BFF34F8FBFF36F8FFEE74B
:1034E0006068A1686160A060A06A401CA062FFF7EC
:1034F00047FD206BDFF87080864209D36068006862
:1035000080B16068C068C568686886420DD2206373
:103510002068C06A00EB800158F821000128CAD950
:103520000127C8E74FF0FF30F1E7281DFFF7F0FD56
:10353000A86A18B105F11800FFF7EAFDE86A012151
:10354000A26981401143A16100EB800108EB810079
:10355000291DFFF716FEE86A2168C96A8842CDD3A3
:103560000127CBE72C000020880500202DE9F0473B
:103570002C4D00242746A86B38B1FFF70FFEA86B2F
:10358000401EA863A86B40B146E0502080F311882C
:10359000BFF34F8FBFF36F8FFEE72969224E0120E3
:1035A000D1B3A6F1B40980463068E8B1F068C468C8
:1035B00004F11800FFF7ACFD201DFFF7A9FDE06A3C
:1035C000AA6908FA00F11143A96100EB800109EB37
:1035D0008100211DFFF7D5FDE06A2968C96A88428C
:1035E000E2D3C5F82480DFE70CB1FFF7C9FC2C6AF1
:1035F00044B14646FFF756FF00B16E62641EF9D132
:1036000000202862686A38B1084901273807086035
:10361000BFF34F8FBFF36F8FFFF7E0FD3846BDE874
:10362000F08700002C0000203C06002004ED00E0A4
:10363000000000000000000000000000000000008A
:1036400000000010101010101010000010100000EA
:1036500000122424480000000000000000000000C8
:103660000000001212127E2424247E242424000050
:103670000000083C4A4A48380C0A0A4A4A3C0808F2
:1036800000000044A4A8A8B0541A2A2A4A44000002
:1036900000000030484848506EA494988976000095
:1036A000006020204000000000000000000000003A
:1036B000000204080810101010101008080402007E
:1036C00000402010100808080808081010204000CA
:1036D000000000001010D63838D61010000000008E
:1036E00000000000000808087F080808000000002B
:1036F00000000000000000000000000060202040EA
:1037000000000000000000007E000000000000003B
:1037100000000000000000000000000060600000E9
:10372000000002040404080810101020204040008B
:103730000000001824424242424242422418000043
:10374000000000083808080808080808083E0000BB
:103750000000003C4242420204081020427E000069
:103760000000003C4242020418040242423C0000B5
:10377000000000040C0C142424447F04041F0000E7
:103780000000007E4040407844020242443800007D
:10379000000000182440405C62424242221C0000AB
:1037A0000000007E420404080810101010100000F1
:1037B0000000003C4242422418244242423C0000A5
:1037C0000000003844424242463A020224180000F7
:1037D0000000000000001818000000001818000089
:1037E0000000000000000010000000000010101099
:1037F000000000020408102040201008040200000D
:103800000000000000007E00007E000000000000BC
:1038100000000040201008040204081020400000AE
:103820000000003C4242620408080800181800002A
:1038300000000038445AAAAAAAAAAA5C423C000086
:103840000000001010182828243C444242E70000E1
:10385000000000F8444444784442424244F80000E6
:103860000000003E42428080808080424438000058
:10387000000000F8444242424242424244F8000002
:10388000000000FC424848784848404242FC0000A2
:10389000000000FC424848784848404040E00000B2
:1038A0000000003C44448080808E84444438000002
:1038B000000000E7424242427E42424242E70000AC
:1038C0000000007C1010101010101010107C000070
:1038D0000000003E0808080808080808080888F0E2
:1038E000000000EE444850705048484444EE000048
:1038F000000000E0404040404040404042FE0000A8
:10390000000000EE6C6C6C6C6C54545454D6000087
:10391000000000C7626252524A4A4A4646E200002C
:103920000000003844828282828282824438000011
:10393000000000FC424242427C40404040E0000027
:103940000000003844828282828282B24C380600B3
:10395000000000FC4242427C4848444442E30000EC
:103960000000003E4242402018040242427C000017
:10397000000000FE921010101010101010380000FF
:10398000000000E74242424242424242423C0000C2
:10399000000000E7424244242428281810100000A8
:1039A000000000D654545454546C28282828000091
:1039B000000000E7422424181818242442E70000DD
:1039C000000000EE444428281010101010380000A9
:1039D0000000007E840408081020204242FC000001
:1039E000001E1010101010101010101010101E00DB
:1039F00000004020202010101008080404040202D7
:103A00000078080808080808080808080808780066
:103A1000001824000000000000000000000000006A
:103A2000000000000000000000000000000000FF97
:103A30000060100000000000000000000000000016
:103A40000000000000000038440C34444C360000F4
:103A500000000000C04040586442424264580000E8
:103A6000000000000000001C22404040221C00001A
:103A7000000000000602023E42424242463B000075
:103A8000000000000000003C42427E40423C00003A
:103A9000000000000C12107C10101010107C0000B0
:103AA000000000000000003E444438403C42423CDC
:103AB00000000000C040405C6242424242E7000019
:103AC000000000303000007010101010107C00005A
:103AD0000000000C0C00001C0404040404044478DE
:103AE00000000000C040404E4850704844EE0000C6
:103AF000000000107010101010101010107C00004A
:103B000000000000000000FE4949494949ED00005D
:103B100000000000000000DC6242424242E7000078
:103B2000000000000000003C42424242423C0000D3
:103B300000000000000000D864424242645840E0A7
:103B4000000000000000001A26424242261A020726
:103B500000000000000000EE3220202020F80000CD
:103B6000000000000000003E42403C02427C000099
:103B7000000000000010107C10101010120C00004B
:103B800000000000000000C642424242463B0000E6
:103B900000000000000000EE44442828101000003F
:103BA00000000000000000DB894A5A542424000071
:103BB000000000000000007624181818246E000091
:103BC00000000000000000E74224241818101060D4
:103BD000000000000000007E44081010227E00005B
:103BE000000304040404040408040404040403009B
:103BF0000808080808080808080808080808080845
:103C000000C0202020202020102020202020C000C4
:103C1000205A040000000000000000000000000026
:103C20000000000000000000000000000000000094
:103C300008200820FFFE0820001000F83F001110A7
:103C4000082001007FFC054009203118C106010051
:103C5000000427C414441454855445544554155441
:103C600015542554E55421042284224424140808C0
:103C70001FF010101FF010101FF000003FFC20007C
:103C80002FF820003FFE2908289048604A188C062B
:103C900001000100010001000100FFFE0100010020
:103CA0000280028004400440082010102008C00652
:103CB0001010082004403FF8210821083FF821088F
:103CC00021083FF801000100FFFE01000100010092
:103CD0001000100013FE1020542058205020902077
:103CE00010201020102028202420442040A08040B4
:103CF0000100010001003FF82108210821083FF8D8
:103D00002108210821083FF8210A0102010200FED2
:103D100010801040104013FCFC00100031F03910EE
:103D2000551055109110111211121212120E14008A
:103D3000010001000280044008203018CFE6000096
:103D400000001FF010101010101010101FF01010B5
:103D50000008003C7BE04820492448A448A84820AB
:103D60004BFE4820782048200020002000A0004082
:103D700010201020102013FEFC201020102015FC15
:103D800018843088D04810501020105051882606D2
:103D9000004020401040104000400040F7FE10401E
:103DA0001040104010401040144018401040004097
:103DB00000507C484440445C45E07C40105E11E08B
:103DC0005C445048503050225C52E08A03060002A6
:103DD000080008001FE020204040BFF8210821080B
:103DE0003FF8210821083FF82108410841288010A8
:103DF000100010FC3C2424244854BE882A102A5069
:103E00003E7C2A902A103EFE2A104A10421086104C
:103E100008101D10F09010901010FD1010903890A8
:103E20003410501E53F0901010101010101010107D
:103E3000100011FC11247DFC552455FC544054887D
:103E40007DF05020104417FE1C22E5244222006021
:103E5000000021F0111011100110020EF40013F8EF
:103E600011081110109014A0184010A003180C068F
:103E7000020001007FFE40028884048004801080DC
:103E800008800880FFFE014002200410180860042A
:103E9000002820241024102007FE0020F02017E026
:103EA000112011101110151019CA170A020600026C
:103EB00020403E7E489080003FF820083FF82008D0
:103EC0003FF820083FF80820FFFE0820102020209F
:103ED000010001007FFC0100028004400A2031182B
:103EE000C0060100088848844812481287F0000084
:103EF000000047F8201021A0004007FCE4442444BF
:103F000027FC2444244427FC2444245454088FFED2
:103F100010401020202023FE4840F888110423FE82
:103F20004092F890409000901912E112420E040065
:103F300000407C20442049FE4902520449004908BF
:103F40004510452045C069045104410440FC40002F
:103F5000000007F87908491049104920493C4904F4
:103F600049044A887A884A50042004500888030685
:103F700000F83F000400082010403F8001000610B8
:103F800018087FFC010409201110210845040200D3
:103F9000084008200BFE1000100031FC30005000DB
:103FA00091FC1000100011FC1104110411FC11040B
:103FB00022081108111000207FFE400280041FE03B
:103FC00000400180FFFE0100010001000500020029
:103FD000100011F810101020FC40108031FE3892B3
:103FE00054925492911211221222144210941108E8
:103FF00004400440044004404444244424481448F9
:10400000145014600440044004400440FFFE0000CB
:10401000088008480A48120812083110311051105F
:1040200090A010A01040104010A01110120814060B
:10403000020001007FFE400280043FF80100010001
:104040000100FFFE01000100010001000500020067
:10405000082004403FF82108292825483FF800009F
:104060001FF0101010101FF0101010101FF0101083
:104070001004108410841084108454A45294529418
:104080009084108410841084208420844004800450
:104090000200010000007FFC01000100010001009E
:1040A0003FF801000100010001000100FFFE0000D7
:1040B0000100010001003FF802000200FFFE0400C1
:1040C00008000FF000100020064001800040002092
:1040D0004080208009FC12042448E04020A02318DE
:1040E0002C060400FFFE08201C4003800C707008A2
:1040F00000007FF800100020004001800100FFFE5A
:1041000001000100010001000100010005000200A2
:104110001040102023FE22024800F9FC100020006D
:1041200043FEF820412801241A22E42240A0004046
:10413000402040107DFE80207C48448465FE54026F
:10414000FEA844A8A4A894A8FEAA052A292612001D
:104150000808010030360008080801004036000851
:104160000808010050360008080801006036000801
:1041700008080100703600080808010080360008B1
:10418000080801009036000808080100A036000861
:1041900008080100B036000808080100C036000811
:1041A00008080100D036000808080100E0360008C1
:1041B00008080100F0360008080801000037000870
:1041C000080801001037000808080100203700081F
:1041D00008080100303700080808010040370008CF
:1041E000080801005037000808080100603700087F
:1041F000080801007037000808080100803700082F
:10420000080801009037000808080100A0370008DE
:1042100008080100B037000808080100C03700088E
:1042200008080100D037000808080100E03700083E
:1042300008080100F03700080808010000380008ED
:10424000080801001038000808080100203800089C
:10425000080801003038000808080100403800084C
:1042600008080100503800080808010060380008FC
:1042700008080100703800080808010080380008AC
:10428000080801009038000808080100A03800085C
:1042900008080100B038000808080100C03800080C
:1042A00008080100D038000808080100E0380008BC
:1042B00008080100F038000808080100003900086B
:1042C000080801001039000808080100203900081A
:1042D00008080100303900080808010040390008CA
:1042E000080801005039000808080100603900087A
:1042F000080801007039000808080100803900082A
:10430000080801009039000808080100A0390008D9
:1043100008080100B039000808080100C039000889
:1043200008080100D039000808080100E039000839
:1043300008080100F039000808080100003A0008E8
:1043400008080100103A000808080100203A000897
:1043500008080100303A000808080100403A000847
:1043600008080100503A000808080100603A0008F7
:1043700008080100703A000808080100803A0008A7
:1043800008080100903A000808080100A03A000857
:1043900008080100B03A000808080100C03A000807
:1043A00008080100D03A000808080100E03A0008B7
:1043B00008080100F03A000808080100003B000866
:1043C00008080100103B000808080100203B000815
:1043D00008080100303B000808080100403B0008C5
:1043E00008080100503B000808080100603B000875
:1043F00008080100703B000808080100803B000825
:1044000008080100903B000808080100A03B0008D4
:1044100008080100B03B000808080100C03B000884
:1044200008080100D03B000808080100E03B000834
:1044300008080100F03B000808080100003C0008E3
:1044400008080100103C000808080100203C000892
:1044500010100200303C000810100200503C000810
:1044600010100200703C000810100200903C000880
:1044700010100200B03C000810100200D03C0008F0
:1044800010100200F03C000810100200103D00085F
:1044900010100200303D000810100200503D0008CE
:1044A00010100200703D000810100200903D00083E
:1044B00010100200B03D000810100200D03D0008AE
:1044C00010100200F03D000810100200103E00081D
:1044D00010100200303E000810100200503E00088C
:1044E00010100200703E000810100200903E0008FC
:1044F00010100200B03E000810100200D03E00086C
:1045000010100200F03E000810100200103F0008DA
:1045100010100200303F000810100200503F000849
:1045200010100200703F000810100200903F0008B9
:1045300010100200B03F000810100200D03F000829
:1045400010100200F03F0008101002001040000898
:104550001010020030400008101002005040000807
:104560001010020070400008101002009040000877
:1045700010100200B040000810100200D0400008E7
:1045800010100200F0400008101002001041000856
:104590001010020030410008B9D8B9D89045000881
:1045A00000000000DBD7DBD78845000898450008ED
:1045B000D3D7D3D780450008A4450008CBD7CBD7A5
:1045C00078450008B0450008A8D7A8D7704500086E
:1045D000BC450008F7D6F7D668450008C84500086E
:1045E000DDD6DDD660450008D4450008F8D4F8D4FF
:1045F00058450008E0450008EED3EED350450008CA
:10460000EC450008C7D2C7D248450008F845000865
:10461000B5D2B5D24045000804460008EED1EED12F
:104620003845000810460008A7D1A7D1304500083A
:104630001C460008C5D0C5D02845000828460008FB
:10464000B5CFB5CF2045000834460008FCCEFCCEDF
:104650001845000840460008D3CDD3CD10450008CA
:104660004C460008B3CDB3CD0845000858460008B5
:10467000A8CDA8CD0045000864460008ACCCACCC61
:10468000F844000870460008E3CBE3CBF044000890
:104690007C460008D4CAD4CAE8440008884600080A
:1046A000B5CAB5CAE044000894460008E8C9E8C99C
:1046B000D8440008A0460008DDC2DDC2D04400088E
:1046C000AC460008C6BFC6BFC8440008B8460008CC
:1046D000E2BDE2BDC0440008C4460008C7BDC7BD76
:1046E000B8440008D0460008F9BCF9BCB044000842
:1046F000DC460008C6BCC6BCA8440008E846000862
:10470000BCBCBCBCA0440008F4460008F4BAF4BA2F
:104710009844000800470008CFBACFBA9044000878
:104720000C470008BCBABCBA884400081847000807
:10473000E7B5E7B58044000824470008C6B5C6B50C
:104740007844000830470008A5B5A5B570440008B6
:104750003C470008F3B4F3B4684400084847000835
:10476000BFB3BFB36044000854470008E2B2E2B2EE
:104770005844000860470008CBB2CBB25044000850
:104780006C47000820007F0050410008784700086F
:1047900065050008FD050008290600082F06000829
:1047A0000000000010100101844700080000000014
:1047B000020000000000000000000000F8000000FF
:1047C00000000078F800000000000038F000000051
:1047D00000000038E000000000000018E0000000C9
:1047E00000000018C000000000000008C000000029
:1047F00000000008C0000000000000008000000071
:1048000000000000800000000000000080000007A1
:10481000FF8000000000001FFFC000000000007FBC
:10482000FFC00000000001FFFFF0000000000FFFCC
:10483000FFF9E0000000FFFFFFFFF0000001FFFFB5
:10484000FFFFF0008003FFFFFFFFF8008007FFFF7E
:10485000FFFFFC00C00FFFFFFFFFFC00C01F9FFF1A
:10486000FFF07C08E03E03FFFF003E08E03C003F15
:10487000FC1FBE08F038FC1FFFFFFE08F07FFFFFA3
:10488000FFFFFE08F87FFFFFFFFFFE18F07FFFFF2E
:10489000FFC7FE38F87FC0FFFF00FE38F47E103FF0
:1048A000FE8C7F38E67C199FFECE3F78E67C1FFFAA
:1048B000FFFFFFF0EFFE7FFFFFFFFFF0FEFFFFFFB8
:1048C000FFFFFFF8F8FFFFFFFFFFFFF8F0FFFFFF1C
:1048D000FFFFFFF8F1FFFFFFFFFFFFB8F1FFFFFF52
:1048E000FFFFFFB8F9FFFFFFFFFFFFB8FCFFFFFF6F
:1048F000FFFFFFF8FFFFFFFFFFFFFFF8FFFFFFFFD6
:10490000FFFFFFF8FFFFFFFFFFFFFFF8FFFFFFF8CC
:10491000E7FFFFF8FFFFFFFDFFFFFFF8FFFFFFFFCF
:10492000FFFFFFF8FFFFFFFFFFFFFFF8FFFFFFFFA5
:10493000FFFFFFF8FFFFFFFFFFFFFFF8FFFFFFFF95
:10494000FFFFFFF8FFFFFFFFFFFFFFF8FFFFFF4341
:10495000FFDFFFF8FFFFFE00001FFFF8FFFFFE0074
:10496000001FFFF8FFFFFF01FFFFFFF8FFF9FF8FB8
:10497000FFFFFFF8FFF8FFE7FFFFC7F8FFF0FFFFBB
:10498000FFFF83F8FFF0FFFFFFFF83F8FFE0FFFF6B
:10499000FFFF81F8FFE0EFFFFFFF81F8FFC0F3FFAB
:1049A000FFFF81F8FF80F9FFFFFF80F8FF00FCFFA9
:1049B000FFFF0078FE00FF7FFFFF00183D00400072
:1049C00008000100BC470008B04700084850000834
:1049D000B926000800000000000000008000000070
:1049E0003C500008ED260008FDFF0000000000001C
:1049F000800000005450000829270008FDFF000037
:104A00000000000080000000000000000000000026
:104A10008080808080008000A0A0A00000000000B6
:104A20005050F850F85050002078A07028F0200026
:104A3000C0C81020409818006090A040A89068005E
:104A4000C0408000000000002040808080402000A6
:104A50008040202020408000005020F8205000009E
:104A6000002020F8202000000000000000C040804E
:104A7000000000F8000000000000000000C0C000BE
:104A80000008102040800000708898A8C888700036
:104A90002060202020207000708808304080F800BE
:104AA000708808300888700010305090F81010009E
:104AB000F880F00808887000304080F08888700026
:104AC000F808102040404000708888708888700086
:104AD000708888780810600000C0C000C0C0000066
:104AE0000000C0C000C04080102040804020100066
:104AF0000000F800F80000008040201020408000F6
:104B0000708808102000200070880868A8A870002D
:104B1000708888F888888800F08888F08888F00095
:104B20007088808080887000E09088888890E0009D
:104B3000F88080F08080F800F88080F0808080002D
:104B40007088808098887800888888F888888800AD
:104B5000E04040404040E0003810101010906000ED
:104B60008890A0C0A0908800808080808080F8001D
:104B700088D8A8A8888888008888C8A898888800C5
:104B80007088888888887000F08888F0808080002D
:104B900070888888A8906800F08888F0A0908800C5
:104BA0007088807008887000F82020202020200065
:104BB000888888888888700088888888885020003D
:104BC000888888A8A8A85000888850205088880025
:104BD0008888502020202000F80810204080F8000D
:104BE000E08080808080E00000804020100800008D
:104BF000E02020202020E00020508800000000005D
:104C000000000000000000F88040200000000000CC
:104C100000007008788878008080B0C88888F0002C
:104C2000000060908090600008086898888878008C
:104C300000007088F8807000205040E04040400044
:104C400000007888887808708080B0C888888800DC
:104C5000800080808080800020006020202020C094
:104C6000808090A0C0A09000C04040404040E00044
:104C70000000D0A8888888000000B0D090909000F4
:104C800000006090909060000000E09090E08080D4
:104C900000007090907010100000A0C08080800014
:104CA000000070806010E0004040E0404040400064
:104CB000000090909090700000008888885020003C
:104CC00000008888A8A85000000088502050880064
:104CD00000009090907010600000F8102040F800E4
:104CE0002040408040402000404040404040400044
:104CF000804040204040800068900000000000009C
:104D000003030100084A000802020100104A0008DB
:104D100004040100184A000806060100204A0008A1
:104D200006060100284A000806060100304A00086D
:104D300006060100384A000803030100404A000843
:104D400004040100484A000804040100504A000815
:104D500006060100584A000806060100604A0008DD
:104D600003030100684A000806060100704A0008B3
:104D700003030100784A000806060100804A000883
:104D800006060100884A000806060100904A00084D
:104D900006060100984A000806060100A04A00081D
:104DA00006060100A84A000806060100B04A0008ED
:104DB00006060100B84A000806060100C04A0008BD
:104DC00006060100C84A000806060100D04A00088D
:104DD00003030100D84A000803030100E04A000869
:104DE00005050100E84A000806060100F04A00082F
:104DF00005050100F84A000806060100004B0008FE
:104E000006060100084B000806060100104B0008CA
:104E100006060100184B000806060100204B00089A
:104E200006060100284B000806060100304B00086A
:104E300006060100384B000806060100404B00083A
:104E400006060100484B000804040100504B00080E
:104E500006060100584B000806060100604B0008DA
:104E600006060100684B000806060100704B0008AA
:104E700006060100784B000806060100804B00087A
:104E800006060100884B000806060100904B00084A
:104E900006060100984B000806060100A04B00081A
:104EA00006060100A84B000806060100B04B0008EA
:104EB00006060100B84B000806060100C04B0008BA
:104EC00006060100C84B000806060100D04B00088A
:104ED00006060100D84B000804040100E04B00085E
:104EE00006060100E84B000804040100F04B00082E
:104EF00006060100F84B000806060100004C0008F9
:104F000006060100084C000806060100104C0008C7
:104F100006060100184C000805050100204C000899
:104F200006060100284C000806060100304C000867
:104F300005050100384C000806060100404C000839
:104F400006060100484C000802020100504C00080F
:104F500004040100584C000805050100604C0008DD
:104F600004040100684C000806060100704C0008AB
:104F700005050100784C000805050100804C00087B
:104F800005050100884C000805050100904C00084B
:104F900004040100984C000805050100A04C00081D
:104FA00004040100A84C000805050100B04C0008ED
:104FB00006060100B84C000806060100C04C0008B7
:104FC00006060100C84C000805050100D04C000889
:104FD00006060100D84C000804040100E04C00085B
:104FE00003030100E84C000804040100F04C000831
:104FF00006060100F84C000820007E00004D000865
:105000000000000065050008FD05000829060008ED
:105010002F0600080000000008080101F84F0008F2
:105020000000000000000000000000000102030476
:105030000607080900000000010203046D795461AD
:10504000736B47554900000064656661756C745464
:1050500061736B006D795461736B4B657953636158
:105060006E00000084500008000000208C0000004A
:1050700038290008105100088C000020EC2900009D
:1050800048290008000101000000000000000000A5
:105090000000000000000000000000000000000010
:1050A0000100000010000000000000000024F400D7
:1050B00000000000000000000000000000000000F0
:1050C00000000000000000000000000000000000E0
:1050D00000000000000000000000000000000000D0
:1050E00000000000000000000000000000000000C0
:1050F00000000000000000000000000000000000B0
:105100000000000000000000AAAAAAAA00000000F7
:04000005080000ED02
:00000001FF
